S00B00004553432E737265633E
S113000012C019C018C017C016C015C014C013C040
S113001012C011C010C00FC00EC00DC00CC00BC068
S11300200AC009C008C011241FBECFE5D4E0DEBF5A
S1130030CDBF12D0ADC0E4CFFC01808121E030E01F
S113004001C0220F6A95EAF7442311F0282B02C05D
S113005020952823208308958CE381BB87E087BB08
S113006012BA18BA41E061E088E390E0E5DFC4E148
S1130070D0E012BA18BA8AE18A95F1F700C041E0DB
S113008065E082E390E0D8DF41E061E088E390E05E
S1130090D3DF85E38A95F1F70000219751F7C4E196
S11300A0D0E012BA18BA8AE18A95F1F700C041E0AB
S11300B063E082E390E0C0DF41E061E088E390E048
S11300C0BBDF85E38A95F1F70000219751F7C4E17E
S11300D0D0E012BA18BA8AE18A95F1F700C041E07B
S11300E063E082E390E0A8DF41E062E088E390E02F
S11300F0A3DF85E38A95F1F70000219751F7C4E166
S1130100D0E012BA18BA8AE18A95F1F700C041E04A
S113011064E082E390E090DF41E062E088E390E015
S11301208BDF85E38A95F1F70000219751F7C4E14D
S1130130D0E012BA18BA8AE18A95F1F700C041E01A
S113014064E082E390E078DF41E060E088E390E0FF
S113015073DF85E38A95F1F70000219751F7C4E135
S1130160D0E012BA18BA8AE18A95F1F700C041E0EA
S113017065E082E390E060DF41E060E088E390E0E6
S11301805BDF85E38A95F1F70000219751F76FCF84
S1070190F894FFCF0D
S9030000FC
