S00B00004553432E737265633E
S113000012C0D7C02BC02AC029C028C027C026C010
S113001025C0FCC023C022C021C020C01FC01EC0F8
S11300201DC01CC01BC011241FBECFE5D4E0DEBF21
S1130030CDBF10E0A0E6B0E0E0E8F2E002C0059039
S11300400D92A236B107D9F720E0A2E6B0E001C0D4
S11300501D92A736B207E1F79BD010C1D1CFFC01A6
S1130060808121E030E001C0220F6A95EAF7442341
S113007011F0282B02C02095282320830895CF93C4
S1130080DF93C4E1D0E012BA18BA88E28A95F1F796
S113009041E065E082E390E0E2DF41E061E088E393
S11300A090E0DDDF80E58A95F1F7219761F7C4E1FF
S11300B0D0E012BA18BA88E28A95F1F741E063E019
S11300C082E390E0CCDF41E061E088E390E0C7DFC9
S11300D080E58A95F1F7219761F7C4E1D0E012BA7F
S11300E018BA88E28A95F1F741E063E082E390E090
S11300F0B6DF41E062E088E390E0B1DF80E58A9515
S1130100F1F7219761F7C4E1D0E012BA18BA88E296
S11301108A95F1F741E064E082E390E0A0DF41E0FA
S113012062E088E390E09BDF80E58A95F1F7219710
S113013061F7C4E1D0E012BA18BA88E28A95F1F7FF
S113014041E064E082E390E08ADF41E060E088E33C
S113015090E085DF80E58A95F1F7219761F7C4E1A6
S1130160D0E012BA18BA88E28A95F1F741E065E066
S113017082E390E074DF41E060E088E390E06FDFC9
S113018080E58A95F1F7219761F7DF91CF91089582
S113019021E040E061E088E090E05FD088E381BB4B
S11301A087E087BB12BA18BA89B7846089BF67DF52
S11301B0FECF1F920F920FB60F9211248F939F932D
S11301C080916600882391F08CB59DB5909365006D
S11301D080936400809162009091630001969093F3
S11301E06300809362001092660009C01FBC1EBCAD
S11301F01DBC1CBC82E08EBD81E0809366009F9193
S11302008F910F900FBE0F901F9018951F920F9211
S11302100FB60F9211242F933F934F935F936F93D5
S11302207F938F939F93AF93BF93EF93FF938FE449
S113023021D081E080936000FF91EF91BF91AF9155
S11302409F918F917F916F915F914F913F912F91EA
S11302500F900FBE0F901F90189590BD89B9611132
S1130260579A4111569A2111599A8EE880BD88E116
S11302708AB908955D9BFECF8CB90895F894FFCF99
S1050280010077
S9030000FC
